:020000040800F2
:1000000098060020B501000875050008C504000821
:100010007105000871020008890500080000000051
:100020000000000000000000000000007D05000846
:10003000750200080000000079050008810500082D
:10004000CF010008CF010008CF010008CF01000850
:10005000CF010008CF010008CF010008CF01000840
:10006000CF010008CF010008CF010008CF01000830
:10007000CF010008CF010008CF010008CF01000820
:10008000CF010008CF010008CF010008CF01000810
:10009000CF010008CF010008CF010008CF01000800
:1000A000CF010008CF010008CF010008CF010008F0
:1000B000CF010008CF01000800000000CF010008B8
:1000C000CF0100080000000000000000CF01000880
:1000D00000000000CF010008CF0100080000000070
:1000E000CF010008CF010008CF01000800F002F89E
:1000F00000F050F814A696E8000CB244B344DA4578
:1001000001D100F047F8BAE80F000FA696E83000DA
:10011000A5EB040504EB0607AAEB0704A7F101070A
:100120004FEA15154FEA3414A4F10104AC4201D38F
:1001300000F030F813F0010F18BFFB1A43F0010371
:1001400000F001F8DBE7184798090000B809000043
:10015000103A24BF78C878C1FAD8520724BF30C8F3
:1001600030C144BF04680C60704700007047000055
:100170000023002400250026103A28BF78C1FBD8B0
:10018000520728BF30C148BF0B6070471FB51FBD65
:1001900010B510BD00F031F81146FFF7F7FF00F081
:1001A0002BFC00F04FF803B4FFF7F2FF03BC00F0A4
:1001B00057F800000948804709480047FEE7FEE776
:1001C000FEE7FEE7FEE7FEE7FEE7FEE7FEE7FEE707
:1001D00004480549054A064B70470000850500089C
:1001E000ED000008980000209806002098020020EA
:1001F00098020020704770477047754600F02CF851
:10020000AE4605006946534620F00700854618B003
:1002100020B5FFF7DDFFBDE820404FF000064FF0AE
:1002200000074FF000084FF0000BAC46ACE8C009E7
:10023000ACE8C009ACE8C009ACE8C00921F007018E
:100240008D46704710B50446AFF300802046BDE8E8
:100250001040FFF7A8BF00000048704720000020B2
:1002600001491820ABBEFEE72600020070470000DF
:10027000FEE70000704700004FF4FA5148434EF289
:100280001001CEF20001486000208860072008605D
:10029000704700002DE9F04F82B00E68002E00F08C
:1002A000F78040F20C4C40F2004E41F20002C4F2E2
:1002B000010CC4F2010EC4F2010203270024012341
:1002C0004FF0000B4FF00009904208BF0227009743
:1002D00049E000BF40F60042C4F20102009F904294
:1002E00008BF012704F00C030F229A402AEA0202F9
:1002F00007FA03F34FEA9B051A4346F825204E6898
:10030000F203DEF8002054BF22EA080242EA0802A3
:10031000CEF80020DEF80420B30354BF22EA08021E
:1003200042EA0802CEF80420F302DEF8082054BFA7
:1003300022EA080242EA0802B302CEF80820DCF8FA
:1003400000204FF0010354BF22EA080242EA0802EB
:10035000CCF800200E680BF1010B36FA0BF204F119
:10036000040400F0958003FA0BFA16EA0A08F1D0AB
:100370004E684FF6FF72C1F21002964212DC122E46
:1003800056D8DFE806F0350B4549555555555555B6
:10039000555555555555554D510000BFD1F80C9048
:1003A00046E000BF4FF6FF72C1F2210296420FDC19
:1003B0000022C1F2110296421AD00022C1F21202AA
:1003C000964215D00022C1F22102964210D02FE0B1
:1003D0000022C1F2220296420AD00022C1F231026A
:1003E000964205D00022C1F23202964220D100BFCF
:1003F0008A684AB1012A14BFC0F814A0C0F810A03E
:100400004FF0080914E000BF4FF0040910E000BFEE
:10041000CA6802F108090BE04FF0000908E000BFCC
:10042000CA6802F1040903E0CA6802F10C0900BFBE
:1004300022460646B8F5807F24BF203A0436376846
:100440000F25954027EA050509FA02F22A43326092
:10045000CA79D2067FF57EAF41F21803C4F20203D7
:100460001A68AEF57E7642F001021A601A6802F050
:1004700001020192019A2BF0030256F802A040F605
:100480000002C4F2010290427FF424AF002729E762
:1004900002B0BDE8F08F0000002A08BF0904016126
:1004A000704700004EF61050CEF20000026801299D
:1004B00022F0040202600FBF30BF40BF20BF20BF48
:1004C00070470000FEE700002DE9F04786B04FF0CE
:1004D000000A41F21800CDF814A0C4F2020001682D
:1004E00040F6000541F0040101600168C4F2010515
:1004F00001F00401019101990168002241F0080115
:10050000016000684FF6807100F0080001900198CA
:1005100028464FF68078FFF7BFFF05F58064204638
:100520004FF6FF7100224FF6FF79FFF7B5FF7F20EE
:1005300002AECDE9020A0127284631460497FFF7AB
:10054000A9FECDE902874FF0020828463146CDF8D2
:1005500010A0CDF81480FFF79DFE20463146CDE96E
:100560000297CDE904A8FFF795FE06B0BDE8F08735
:10057000FEE70000FEE70000704700007047000043
:1005800000F004B870470000FEE70000B0B540F28C
:100590008004C2F20004606821780130092960609B
:1005A00000F29281DFE811F00A0034005800880060
:1005B000B000D800040130015401800140F610451C
:1005C000C4F20105102028604FF0805028604FF6DB
:1005D0000040CFF6FF704FF0004129504FF400313A
:1005E00029604FF08041295000F0EEF9092800F20F
:1005F0006D81DFE810F00B006D016F017101730177
:100600007501770179017B017D0100BF002070E158
:10061000C82840F0598140F61040C4F20100202162
:1006200001604FF4801101604FF60041CFF6FF7179
:100630004FF40042425002210160A26840F2A3132D
:1006400023FA02F2D2071CBF0822026021700020A8
:100650006060E060B0BD00BFC82840F61040C4F242
:1006600001000CD1E26800216160511CE160402171
:1006700001604FF4001101604FF400210160E16856
:10068000142904D30921217000216160E1604FF633
:10069000F831CFF6FF714158C90600F115814FF4CA
:1006A00000310160A06840F2A51121FA00F0C007F6
:1006B00027D00320A2E000BFC82840F61040C4F2B3
:1006C00001000BD1E26800216160511CE1608021D2
:1006D00001604FF48001016001210160E16814298B
:1006E00004D30921217000216160E1604FF6F831E7
:1006F000CFF6FF714158490600F1E6804FF4803192
:10070000016004207AE000BFC82840F61040C4F21F
:10071000010014D1E26800216160511CE1604FF4D6
:10072000807101604FF4800101604FF400010160AD
:100730004FF60041CFF6FF714FF480424250E1681E
:100740001429C0F0C1804FF60041CFF6FF714FF081
:1007500080424250052076E0C82840F61040C4F29E
:1007600001000CD1E26800216160511CE1604FF48E
:10077000007101604FF08071016004210160E16847
:10078000142904D30921217000216160E1604FF632
:10079000F831CFF6FF714158890600F195804FF48A
:1007A000802101600620207000206060B0BD00BF85
:1007B000C82840F61040C4F201000CD1E2680021C4
:1007C0006160511CE1604FF4806101604FF0007185
:1007D000016002210160E168142904D3092121701C
:1007E00000216160E1604FF6F831CFF6FF714158AA
:1007F000C90669D44FF40031016007202070002041
:10080000E0606060B0BD00BF40F61041C8284FF600
:100810000040C4F20101CFF6FF700DD1E368002261
:1008200062605A1CE2604FF400620A604FF080621E
:100830000A604FF480420A50E268142A44D34FF011
:1008400080420A500820207000206060E060B0BD47
:10085000C82840F61040C4F201000CD1E268002123
:100860006160511CE1604FF4805101604FF0006104
:10087000016004210160E168142904D30921217079
:1008800000216160E1604FF6F831CFF6FF71415809
:10089000890648BFB0BD4FF4802101600020207060
:1008A0006060E060B0BD00BF40F61040C4F20100DF
:1008B0004FF4005101604FF4802101604FF400318A
:1008C00001604FF480310160B0BD00BFA06811E04D
:1008D00001200EE002200CE003200AE0042008E0E2
:1008E000052006E0062004E0072002E0082000E0E2
:1008F0000920A06000F08CF84FF6F830CFF6FF70BA
:1009000028580007E0D40120207000206060B0BDAE
:1009100040F29001C2F20001FF2240F608000A6096
:1009200040F20072C4F20100C0F2800282600268EC
:10093000D20704BF01220A60026892075CBF02224C
:100940000A60026852075CBF03220A6040F28062BC
:10095000C0F2001282600268D20704BF04220A605B
:10096000026892075CBF05220A60026852075CBFFA
:1009700006220A6040F28052C0F2002282600268C1
:10098000D20704BF07220A60026892075CBF0822F0
:100990000A60026852075CBF09220A6040F2803296
:1009A000C0F2004282600268D20704BF0A220A60D5
:1009B000026892075CBF00220A60006840074EBFD1
:1009C00008680B200860704780B5FFF7A1FF40F270
:1009D0001002C2F20002D2E9011390609942C2E90A
:1009E000001308BFFF2840F29400C2F2000012BFBB
:1009F00000680160084680BDFFF766FD0520FFF72F
:100A00003BFC00BF00200121FFF74CFDFAE700008E
:100A100080B540F20001C2F200010A564FF40061B5
:100A2000B2F1FF3F40F61000C8BF4FF00061C4F2C2
:100A30000100530601604FF4805E4FF080514FF487
:100A40000063C0F800E0016058BF4FF0006303602E
:100A500093064FF40063C0F800E0016058BF4FF008
:100A600000630360D3064FF40063C0F800E0016048
:100A700058BF4FF00063036013074FF40063C0F8E2
:100A800000E0016058BF4FF00063036053074FF46C
:100A90000063C0F800E0016058BF4FF000630360DE
:100AA00093074FF4006C4FF40063C0F800E001605E
:100AB00058BF4FF000630360C0F800E00160D20748
:100AC00008BF4FF0006CC0F800C0C0F800E0016043
:100AD0004FF4005101604FF00051016080BD0000F3
:100AE000000B00080000002020000000500100085A
:100AF000200B00082000002078060000700100088C
:100B0000C0F9A4B0999282F880908883C6A1868E9D
:100B1000FF000000FF000000FF00000000000000D8
:04000005080000ED02
:00000001FF
